{
  "_format": "hh-sol-artifact-1",
  "contractName": "Voting",
  "sourceName": "contracts/Voting.sol",
  "abi": [
    {
      "anonymous": false,
      "inputs": [
        {
          "indexed": true,
          "internalType": "address",
          "name": "previousOwner",
          "type": "address"
        },
        {
          "indexed": true,
          "internalType": "address",
          "name": "newOwner",
          "type": "address"
        }
      ],
      "name": "OwnershipTransferred",
      "type": "event"
    },
    {
      "anonymous": false,
      "inputs": [
        {
          "indexed": false,
          "internalType": "uint256",
          "name": "proposalId",
          "type": "uint256"
        }
      ],
      "name": "ProposalRegistered",
      "type": "event"
    },
    {
      "anonymous": false,
      "inputs": [
        {
          "indexed": false,
          "internalType": "address",
          "name": "voter",
          "type": "address"
        },
        {
          "indexed": false,
          "internalType": "uint256",
          "name": "proposalId",
          "type": "uint256"
        }
      ],
      "name": "Voted",
      "type": "event"
    },
    {
      "anonymous": false,
      "inputs": [
        {
          "indexed": false,
          "internalType": "address",
          "name": "voterAddress",
          "type": "address"
        }
      ],
      "name": "VoterRegistered",
      "type": "event"
    },
    {
      "anonymous": false,
      "inputs": [
        {
          "indexed": false,
          "internalType": "enum Voting.WorkflowStatus",
          "name": "previousStatus",
          "type": "uint8"
        },
        {
          "indexed": false,
          "internalType": "enum Voting.WorkflowStatus",
          "name": "newStatus",
          "type": "uint8"
        }
      ],
      "name": "WorkflowStatusChange",
      "type": "event"
    },
    {
      "inputs": [
        {
          "internalType": "string",
          "name": "_desc",
          "type": "string"
        }
      ],
      "name": "addProposal",
      "outputs": [],
      "stateMutability": "nonpayable",
      "type": "function"
    },
    {
      "inputs": [
        {
          "internalType": "address",
          "name": "_addr",
          "type": "address"
        }
      ],
      "name": "addVoter",
      "outputs": [],
      "stateMutability": "nonpayable",
      "type": "function"
    },
    {
      "inputs": [],
      "name": "endProposalsRegistering",
      "outputs": [],
      "stateMutability": "nonpayable",
      "type": "function"
    },
    {
      "inputs": [],
      "name": "endVotingSession",
      "outputs": [],
      "stateMutability": "nonpayable",
      "type": "function"
    },
    {
      "inputs": [
        {
          "internalType": "uint256",
          "name": "_id",
          "type": "uint256"
        }
      ],
      "name": "getOneProposal",
      "outputs": [
        {
          "components": [
            {
              "internalType": "string",
              "name": "description",
              "type": "string"
            },
            {
              "internalType": "uint256",
              "name": "voteCount",
              "type": "uint256"
            }
          ],
          "internalType": "struct Voting.Proposal",
          "name": "",
          "type": "tuple"
        }
      ],
      "stateMutability": "view",
      "type": "function"
    },
    {
      "inputs": [
        {
          "internalType": "address",
          "name": "_addr",
          "type": "address"
        }
      ],
      "name": "getVoter",
      "outputs": [
        {
          "components": [
            {
              "internalType": "bool",
              "name": "isRegistered",
              "type": "bool"
            },
            {
              "internalType": "bool",
              "name": "hasVoted",
              "type": "bool"
            },
            {
              "internalType": "uint256",
              "name": "votedProposalId",
              "type": "uint256"
            }
          ],
          "internalType": "struct Voting.Voter",
          "name": "",
          "type": "tuple"
        }
      ],
      "stateMutability": "view",
      "type": "function"
    },
    {
      "inputs": [],
      "name": "owner",
      "outputs": [
        {
          "internalType": "address",
          "name": "",
          "type": "address"
        }
      ],
      "stateMutability": "view",
      "type": "function"
    },
    {
      "inputs": [],
      "name": "renounceOwnership",
      "outputs": [],
      "stateMutability": "nonpayable",
      "type": "function"
    },
    {
      "inputs": [
        {
          "internalType": "uint256",
          "name": "_id",
          "type": "uint256"
        }
      ],
      "name": "setVote",
      "outputs": [],
      "stateMutability": "nonpayable",
      "type": "function"
    },
    {
      "inputs": [],
      "name": "startProposalsRegistering",
      "outputs": [],
      "stateMutability": "nonpayable",
      "type": "function"
    },
    {
      "inputs": [],
      "name": "startVotingSession",
      "outputs": [],
      "stateMutability": "nonpayable",
      "type": "function"
    },
    {
      "inputs": [],
      "name": "tallyVotes",
      "outputs": [],
      "stateMutability": "nonpayable",
      "type": "function"
    },
    {
      "inputs": [
        {
          "internalType": "address",
          "name": "newOwner",
          "type": "address"
        }
      ],
      "name": "transferOwnership",
      "outputs": [],
      "stateMutability": "nonpayable",
      "type": "function"
    },
    {
      "inputs": [],
      "name": "winningProposalID",
      "outputs": [
        {
          "internalType": "uint256",
          "name": "",
          "type": "uint256"
        }
      ],
      "stateMutability": "view",
      "type": "function"
    },
    {
      "inputs": [],
      "name": "winningProposalVotes",
      "outputs": [
        {
          "internalType": "uint256",
          "name": "",
          "type": "uint256"
        }
      ],
      "stateMutability": "view",
      "type": "function"
    },
    {
      "inputs": [],
      "name": "workflowStatus",
      "outputs": [
        {
          "internalType": "enum Voting.WorkflowStatus",
          "name": "",
          "type": "uint8"
        }
      ],
      "stateMutability": "view",
      "type": "function"
    }
  ],
  "bytecode": "0x60806040523480156200001157600080fd5b5062000032620000266200003860201b60201c565b6200004060201b60201c565b62000104565b600033905090565b60008060009054906101000a900473ffffffffffffffffffffffffffffffffffffffff169050816000806101000a81548173ffffffffffffffffffffffffffffffffffffffff021916908373ffffffffffffffffffffffffffffffffffffffff1602179055508173ffffffffffffffffffffffffffffffffffffffff168173ffffffffffffffffffffffffffffffffffffffff167f8be0079c531659141344cd1fd0a4f28419497f9722a3daafe3b4186f6b6457e060405160405180910390a35050565b61251180620001146000396000f3fe608060405234801561001057600080fd5b50600436106101005760003560e01c8063a7bfab1611610097578063d4f50f9811610066578063d4f50f9814610217578063ee74c67814610247578063f2fde38b14610251578063f4ab9adf1461026d57610100565b8063a7bfab16146101db578063bdc01431146101e5578063c7038a4e14610203578063c88af42f1461020d57610100565b8063715018a6116100d3578063715018a6146101655780638da5cb5b1461016f578063a1edffa21461018d578063a2788cce146101ab57610100565b8063230796ae146101055780632fdae3c514610121578063378a21781461013d5780633f1b408114610147575b600080fd5b61011f600480360381019061011a9190611969565b610289565b005b61013b60048036038101906101369190611924565b6106a6565b005b61014561097d565b005b61014f610ad5565b60405161015c9190612255565b60405180910390f35b61016d610adb565b005b610177610aef565b6040516101849190611f8c565b60405180910390f35b610195610b18565b6040516101a29190611fd0565b60405180910390f35b6101c560048036038101906101c09190611969565b610b2b565b6040516101d29190612218565b60405180910390f35b6101e3610cb8565b005b6101ed610e10565b6040516101fa9190612255565b60405180910390f35b61020b610e16565b005b61021561100a565b005b610231600480360381019061022c91906118fb565b611162565b60405161023e919061223a565b60405180910390f35b61024f61128a565b005b61026b600480360381019061026691906118fb565b6113e1565b005b610287600480360381019061028291906118fb565b611465565b005b600560003373ffffffffffffffffffffffffffffffffffffffff1673ffffffffffffffffffffffffffffffffffffffff16815260200190815260200160002060000160009054906101000a900460ff16610318576040517f08c379a000000000000000000000000000000000000000000000000000000000815260040161030f90612078565b60405180910390fd5b60036005811115610352577f4e487b7100000000000000000000000000000000000000000000000000000000600052602160045260246000fd5b600360009054906101000a900460ff16600581111561039a577f4e487b7100000000000000000000000000000000000000000000000000000000600052602160045260246000fd5b146103da576040517f08c379a00000000000000000000000000000000000000000000000000000000081526004016103d190612098565b60405180910390fd5b60011515600560003373ffffffffffffffffffffffffffffffffffffffff1673ffffffffffffffffffffffffffffffffffffffff16815260200190815260200160002060000160019054906101000a900460ff1615151415610471576040517f08c379a0000000000000000000000000000000000000000000000000000000008152600401610468906121f8565b60405180910390fd5b60048054905081106104b8576040517f08c379a00000000000000000000000000000000000000000000000000000000081526004016104af90612118565b60405180910390fd5b80600560003373ffffffffffffffffffffffffffffffffffffffff1673ffffffffffffffffffffffffffffffffffffffff168152602001908152602001600020600101819055506001600560003373ffffffffffffffffffffffffffffffffffffffff1673ffffffffffffffffffffffffffffffffffffffff16815260200190815260200160002060000160016101000a81548160ff02191690831515021790555060048181548110610594577f4e487b7100000000000000000000000000000000000000000000000000000000600052603260045260246000fd5b906000526020600020906002020160010160008154809291906105b6906123b2565b9190505550600254600482815481106105f8577f4e487b7100000000000000000000000000000000000000000000000000000000600052603260045260246000fd5b906000526020600020906002020160010154111561066a576004818154811061064a577f4e487b7100000000000000000000000000000000000000000000000000000000600052603260045260246000fd5b906000526020600020906002020160010154600281905550806001819055505b7f4d99b957a2bc29a30ebd96a7be8e68fe50a3c701db28a91436490b7d53870ca4338260405161069b929190611fa7565b60405180910390a150565b600560003373ffffffffffffffffffffffffffffffffffffffff1673ffffffffffffffffffffffffffffffffffffffff16815260200190815260200160002060000160009054906101000a900460ff16610735576040517f08c379a000000000000000000000000000000000000000000000000000000000815260040161072c90612078565b60405180910390fd5b6001600581111561076f577f4e487b7100000000000000000000000000000000000000000000000000000000600052602160045260246000fd5b600360009054906101000a900460ff1660058111156107b7577f4e487b7100000000000000000000000000000000000000000000000000000000600052602160045260246000fd5b146107f7576040517f08c379a00000000000000000000000000000000000000000000000000000000081526004016107ee906120b8565b60405180910390fd5b60405160200161080690612158565b60405160208183030381529060405280519060200120828260405160200161082f929190612014565b604051602081830303815290604052805190602001201415610886576040517f08c379a000000000000000000000000000000000000000000000000000000000815260040161087d906120f8565b60405180910390fd5b61088e6117a5565b82828080601f016020809104026020016040519081016040528093929190818152602001838380828437600081840152601f19601f820116905080830192505050505050508160000181905250600481908060018154018082558091505060019003906000526020600020906002020160009091909190915060008201518160000190805190602001906109239291906117bf565b506020820151816001015550507f92e393e9b54e2f801d3ea4beb0c5e71a21cc34a5d34b77d0fb8a3aa1650dc18f6001600480549050610963919061229d565b6040516109709190612255565b60405180910390a1505050565b61098561165b565b600460058111156109bf577f4e487b7100000000000000000000000000000000000000000000000000000000600052602160045260246000fd5b600360009054906101000a900460ff166005811115610a07577f4e487b7100000000000000000000000000000000000000000000000000000000600052602160045260246000fd5b14610a47576040517f08c379a0000000000000000000000000000000000000000000000000000000008152600401610a3e906121b8565b60405180910390fd5b6005600360006101000a81548160ff02191690836005811115610a93577f4e487b7100000000000000000000000000000000000000000000000000000000600052602160045260246000fd5b02179055507f0a97a4ee45751e2abf3e4fc8946939630b11b371ea8ae39ccdc3056e98f5cc3f60046005604051610acb929190611feb565b60405180910390a1565b60025481565b610ae361165b565b610aed60006116d9565b565b60008060009054906101000a900473ffffffffffffffffffffffffffffffffffffffff16905090565b600360009054906101000a900460ff1681565b610b336117a5565b600560003373ffffffffffffffffffffffffffffffffffffffff1673ffffffffffffffffffffffffffffffffffffffff16815260200190815260200160002060000160009054906101000a900460ff16610bc2576040517f08c379a0000000000000000000000000000000000000000000000000000000008152600401610bb990612078565b60405180910390fd5b60048281548110610bfc577f4e487b7100000000000000000000000000000000000000000000000000000000600052603260045260246000fd5b9060005260206000209060020201604051806040016040529081600082018054610c2590612380565b80601f0160208091040260200160405190810160405280929190818152602001828054610c5190612380565b8015610c9e5780601f10610c7357610100808354040283529160200191610c9e565b820191906000526020600020905b815481529060010190602001808311610c8157829003601f168201915b505050505081526020016001820154815250509050919050565b610cc061165b565b60036005811115610cfa577f4e487b7100000000000000000000000000000000000000000000000000000000600052602160045260246000fd5b600360009054906101000a900460ff166005811115610d42577f4e487b7100000000000000000000000000000000000000000000000000000000600052602160045260246000fd5b14610d82576040517f08c379a0000000000000000000000000000000000000000000000000000000008152600401610d7990612098565b60405180910390fd5b6004600360006101000a81548160ff02191690836005811115610dce577f4e487b7100000000000000000000000000000000000000000000000000000000600052602160045260246000fd5b02179055507f0a97a4ee45751e2abf3e4fc8946939630b11b371ea8ae39ccdc3056e98f5cc3f60036004604051610e06929190611feb565b60405180910390a1565b60015481565b610e1e61165b565b60006005811115610e58577f4e487b7100000000000000000000000000000000000000000000000000000000600052602160045260246000fd5b600360009054906101000a900460ff166005811115610ea0577f4e487b7100000000000000000000000000000000000000000000000000000000600052602160045260246000fd5b14610ee0576040517f08c379a0000000000000000000000000000000000000000000000000000000008152600401610ed790612178565b60405180910390fd5b6001600360006101000a81548160ff02191690836005811115610f2c577f4e487b7100000000000000000000000000000000000000000000000000000000600052602160045260246000fd5b0217905550610f396117a5565b6040518060400160405280600781526020017f47454e4553495300000000000000000000000000000000000000000000000000815250816000018190525060048190806001815401808255809150506001900390600052602060002090600202016000909190919091506000820151816000019080519060200190610fbf9291906117bf565b506020820151816001015550507f0a97a4ee45751e2abf3e4fc8946939630b11b371ea8ae39ccdc3056e98f5cc3f60006001604051610fff929190611feb565b60405180910390a150565b61101261165b565b6001600581111561104c577f4e487b7100000000000000000000000000000000000000000000000000000000600052602160045260246000fd5b600360009054906101000a900460ff166005811115611094577f4e487b7100000000000000000000000000000000000000000000000000000000600052602160045260246000fd5b146110d4576040517f08c379a00000000000000000000000000000000000000000000000000000000081526004016110cb90612198565b60405180910390fd5b6002600360006101000a81548160ff02191690836005811115611120577f4e487b7100000000000000000000000000000000000000000000000000000000600052602160045260246000fd5b02179055507f0a97a4ee45751e2abf3e4fc8946939630b11b371ea8ae39ccdc3056e98f5cc3f60016002604051611158929190611feb565b60405180910390a1565b61116a611845565b600560003373ffffffffffffffffffffffffffffffffffffffff1673ffffffffffffffffffffffffffffffffffffffff16815260200190815260200160002060000160009054906101000a900460ff166111f9576040517f08c379a00000000000000000000000000000000000000000000000000000000081526004016111f090612078565b60405180910390fd5b600560008373ffffffffffffffffffffffffffffffffffffffff1673ffffffffffffffffffffffffffffffffffffffff1681526020019081526020016000206040518060600160405290816000820160009054906101000a900460ff161515151581526020016000820160019054906101000a900460ff161515151581526020016001820154815250509050919050565b61129261165b565b600260058111156112cc577f4e487b7100000000000000000000000000000000000000000000000000000000600052602160045260246000fd5b600360009054906101000a900460ff166005811115611314577f4e487b7100000000000000000000000000000000000000000000000000000000600052602160045260246000fd5b14611354576040517f08c379a000000000000000000000000000000000000000000000000000000000815260040161134b90612138565b60405180910390fd5b60038060006101000a81548160ff0219169083600581111561139f577f4e487b7100000000000000000000000000000000000000000000000000000000600052602160045260246000fd5b02179055507f0a97a4ee45751e2abf3e4fc8946939630b11b371ea8ae39ccdc3056e98f5cc3f600260036040516113d7929190611feb565b60405180910390a1565b6113e961165b565b600073ffffffffffffffffffffffffffffffffffffffff168173ffffffffffffffffffffffffffffffffffffffff161415611459576040517f08c379a000000000000000000000000000000000000000000000000000000000815260040161145090612038565b60405180910390fd5b611462816116d9565b50565b61146d61165b565b600060058111156114a7577f4e487b7100000000000000000000000000000000000000000000000000000000600052602160045260246000fd5b600360009054906101000a900460ff1660058111156114ef577f4e487b7100000000000000000000000000000000000000000000000000000000600052602160045260246000fd5b1461152f576040517f08c379a0000000000000000000000000000000000000000000000000000000008152600401611526906121d8565b60405180910390fd5b60011515600560008373ffffffffffffffffffffffffffffffffffffffff1673ffffffffffffffffffffffffffffffffffffffff16815260200190815260200160002060000160009054906101000a900460ff16151514156115c6576040517f08c379a00000000000000000000000000000000000000000000000000000000081526004016115bd90612058565b60405180910390fd5b6001600560008373ffffffffffffffffffffffffffffffffffffffff1673ffffffffffffffffffffffffffffffffffffffff16815260200190815260200160002060000160006101000a81548160ff0219169083151502179055507fb6be2187d059cc2a55fe29e0e503b566e1e0f8c8780096e185429350acffd3dd816040516116509190611f8c565b60405180910390a150565b61166361179d565b73ffffffffffffffffffffffffffffffffffffffff16611681610aef565b73ffffffffffffffffffffffffffffffffffffffff16146116d7576040517f08c379a00000000000000000000000000000000000000000000000000000000081526004016116ce906120d8565b60405180910390fd5b565b60008060009054906101000a900473ffffffffffffffffffffffffffffffffffffffff169050816000806101000a81548173ffffffffffffffffffffffffffffffffffffffff021916908373ffffffffffffffffffffffffffffffffffffffff1602179055508173ffffffffffffffffffffffffffffffffffffffff168173ffffffffffffffffffffffffffffffffffffffff167f8be0079c531659141344cd1fd0a4f28419497f9722a3daafe3b4186f6b6457e060405160405180910390a35050565b600033905090565b604051806040016040528060608152602001600081525090565b8280546117cb90612380565b90600052602060002090601f0160209004810192826117ed5760008555611834565b82601f1061180657805160ff1916838001178555611834565b82800160010185558215611834579182015b82811115611833578251825591602001919060010190611818565b5b509050611841919061186a565b5090565b6040518060600160405280600015158152602001600015158152602001600081525090565b5b8082111561188357600081600090555060010161186b565b5090565b600081359050611896816124ad565b92915050565b60008083601f8401126118ae57600080fd5b8235905067ffffffffffffffff8111156118c757600080fd5b6020830191508360018202830111156118df57600080fd5b9250929050565b6000813590506118f5816124c4565b92915050565b60006020828403121561190d57600080fd5b600061191b84828501611887565b91505092915050565b6000806020838503121561193757600080fd5b600083013567ffffffffffffffff81111561195157600080fd5b61195d8582860161189c565b92509250509250929050565b60006020828403121561197b57600080fd5b6000611989848285016118e6565b91505092915050565b61199b816122d1565b82525050565b6119aa816122e3565b82525050565b6119b98161232c565b82525050565b60006119cb838561228c565b93506119d883858461233e565b6119e183612488565b840190509392505050565b60006119f782612270565b611a01818561227b565b9350611a1181856020860161234d565b611a1a81612488565b840191505092915050565b6000611a3260268361228c565b91507f4f776e61626c653a206e6577206f776e657220697320746865207a65726f206160008301527f64647265737300000000000000000000000000000000000000000000000000006020830152604082019050919050565b6000611a9860128361228c565b91507f416c7265616479207265676973746572656400000000000000000000000000006000830152602082019050919050565b6000611ad860128361228c565b91507f596f75277265206e6f74206120766f74657200000000000000000000000000006000830152602082019050919050565b6000611b1860218361228c565b91507f566f74696e672073657373696f6e20686176656e74207374617274656420796560008301527f74000000000000000000000000000000000000000000000000000000000000006020830152604082019050919050565b6000611b7e601d8361228c565b91507f50726f706f73616c7320617265206e6f7420616c6c6f776564207965740000006000830152602082019050919050565b6000611bbe60208361228c565b91507f4f776e61626c653a2063616c6c6572206973206e6f7420746865206f776e65726000830152602082019050919050565b6000611bfe60238361228c565b91507f566f7573206e6520706f7576657a20706173206e65207269656e2070726f706f60008301527f73657200000000000000000000000000000000000000000000000000000000006020830152604082019050919050565b6000611c6460128361228c565b91507f50726f706f73616c206e6f7420666f756e6400000000000000000000000000006000830152602082019050919050565b6000611ca4602b8361228c565b91507f5265676973746572696e672070726f706f73616c73207068617365206973206e60008301527f6f742066696e69736865640000000000000000000000000000000000000000006020830152604082019050919050565b6000611d0a60008361228c565b9150600082019050919050565b6000611d2460298361228c565b91507f5265676973746572696e672070726f706f73616c732063616e7420626520737460008301527f6172746564206e6f7700000000000000000000000000000000000000000000006020830152604082019050919050565b6000611d8a60288361228c565b91507f5265676973746572696e672070726f706f73616c7320686176656e742073746160008301527f72746564207965740000000000000000000000000000000000000000000000006020830152604082019050919050565b6000611df0602a8361228c565b91507f43757272656e7420737461747573206973206e6f7420766f74696e672073657360008301527f73696f6e20656e646564000000000000000000000000000000000000000000006020830152604082019050919050565b6000611e5660238361228c565b91507f566f7465727320726567697374726174696f6e206973206e6f74206f70656e2060008301527f79657400000000000000000000000000000000000000000000000000000000006020830152604082019050919050565b6000611ebc60168361228c565b91507f596f75206861766520616c726561647920766f746564000000000000000000006000830152602082019050919050565b60006040830160008301518482036000860152611f0c82826119ec565b9150506020830151611f216020860182611f6e565b508091505092915050565b606082016000820151611f4260008501826119a1565b506020820151611f5560208501826119a1565b506040820151611f686040850182611f6e565b50505050565b611f7781612322565b82525050565b611f8681612322565b82525050565b6000602082019050611fa16000830184611992565b92915050565b6000604082019050611fbc6000830185611992565b611fc96020830184611f7d565b9392505050565b6000602082019050611fe560008301846119b0565b92915050565b600060408201905061200060008301856119b0565b61200d60208301846119b0565b9392505050565b6000602082019050818103600083015261202f8184866119bf565b90509392505050565b6000602082019050818103600083015261205181611a25565b9050919050565b6000602082019050818103600083015261207181611a8b565b9050919050565b6000602082019050818103600083015261209181611acb565b9050919050565b600060208201905081810360008301526120b181611b0b565b9050919050565b600060208201905081810360008301526120d181611b71565b9050919050565b600060208201905081810360008301526120f181611bb1565b9050919050565b6000602082019050818103600083015261211181611bf1565b9050919050565b6000602082019050818103600083015261213181611c57565b9050919050565b6000602082019050818103600083015261215181611c97565b9050919050565b6000602082019050818103600083015261217181611cfd565b9050919050565b6000602082019050818103600083015261219181611d17565b9050919050565b600060208201905081810360008301526121b181611d7d565b9050919050565b600060208201905081810360008301526121d181611de3565b9050919050565b600060208201905081810360008301526121f181611e49565b9050919050565b6000602082019050818103600083015261221181611eaf565b9050919050565b600060208201905081810360008301526122328184611eef565b905092915050565b600060608201905061224f6000830184611f2c565b92915050565b600060208201905061226a6000830184611f7d565b92915050565b600081519050919050565b600082825260208201905092915050565b600082825260208201905092915050565b60006122a882612322565b91506122b383612322565b9250828210156122c6576122c56123fb565b5b828203905092915050565b60006122dc82612302565b9050919050565b60008115159050919050565b60008190506122fd82612499565b919050565b600073ffffffffffffffffffffffffffffffffffffffff82169050919050565b6000819050919050565b6000612337826122ef565b9050919050565b82818337600083830152505050565b60005b8381101561236b578082015181840152602081019050612350565b8381111561237a576000848401525b50505050565b6000600282049050600182168061239857607f821691505b602082108114156123ac576123ab612459565b5b50919050565b60006123bd82612322565b91507fffffffffffffffffffffffffffffffffffffffffffffffffffffffffffffffff8214156123f0576123ef6123fb565b5b600182019050919050565b7f4e487b7100000000000000000000000000000000000000000000000000000000600052601160045260246000fd5b7f4e487b7100000000000000000000000000000000000000000000000000000000600052602160045260246000fd5b7f4e487b7100000000000000000000000000000000000000000000000000000000600052602260045260246000fd5b6000601f19601f8301169050919050565b600681106124aa576124a961242a565b5b50565b6124b6816122d1565b81146124c157600080fd5b50565b6124cd81612322565b81146124d857600080fd5b5056fea2646970667358221220bfc12e5611edef4b352c1e8f88a6df8ebe612938a176970cf79beb52e1e3dc4164736f6c63430008000033",
  "linkReferences": {},
  "deployedLinkReferences": {}
}