{
  "_format": "hh-sol-artifact-1",
  "contractName": "Voting",
  "sourceName": "contracts/Voting.sol",
  "abi": [
    {
      "anonymous": false,
      "inputs": [
        {
          "indexed": true,
          "internalType": "address",
          "name": "previousOwner",
          "type": "address"
        },
        {
          "indexed": true,
          "internalType": "address",
          "name": "newOwner",
          "type": "address"
        }
      ],
      "name": "OwnershipTransferred",
      "type": "event"
    },
    {
      "anonymous": false,
      "inputs": [
        {
          "indexed": false,
          "internalType": "uint256",
          "name": "proposalId",
          "type": "uint256"
        }
      ],
      "name": "ProposalRegistered",
      "type": "event"
    },
    {
      "anonymous": false,
      "inputs": [
        {
          "indexed": false,
          "internalType": "address",
          "name": "voter",
          "type": "address"
        },
        {
          "indexed": false,
          "internalType": "uint256",
          "name": "proposalId",
          "type": "uint256"
        }
      ],
      "name": "Voted",
      "type": "event"
    },
    {
      "anonymous": false,
      "inputs": [
        {
          "indexed": false,
          "internalType": "address",
          "name": "voterAddress",
          "type": "address"
        }
      ],
      "name": "VoterRegistered",
      "type": "event"
    },
    {
      "anonymous": false,
      "inputs": [
        {
          "indexed": false,
          "internalType": "enum Voting.WorkflowStatus",
          "name": "previousStatus",
          "type": "uint8"
        },
        {
          "indexed": false,
          "internalType": "enum Voting.WorkflowStatus",
          "name": "newStatus",
          "type": "uint8"
        }
      ],
      "name": "WorkflowStatusChange",
      "type": "event"
    },
    {
      "inputs": [
        {
          "internalType": "string",
          "name": "_desc",
          "type": "string"
        }
      ],
      "name": "addProposal",
      "outputs": [],
      "stateMutability": "nonpayable",
      "type": "function"
    },
    {
      "inputs": [
        {
          "internalType": "address",
          "name": "_addr",
          "type": "address"
        }
      ],
      "name": "addVoter",
      "outputs": [],
      "stateMutability": "nonpayable",
      "type": "function"
    },
    {
      "inputs": [],
      "name": "endProposalsRegistering",
      "outputs": [],
      "stateMutability": "nonpayable",
      "type": "function"
    },
    {
      "inputs": [],
      "name": "endVotingSession",
      "outputs": [],
      "stateMutability": "nonpayable",
      "type": "function"
    },
    {
      "inputs": [
        {
          "internalType": "uint256",
          "name": "_id",
          "type": "uint256"
        }
      ],
      "name": "getOneProposal",
      "outputs": [
        {
          "components": [
            {
              "internalType": "string",
              "name": "description",
              "type": "string"
            },
            {
              "internalType": "uint256",
              "name": "voteCount",
              "type": "uint256"
            }
          ],
          "internalType": "struct Voting.Proposal",
          "name": "",
          "type": "tuple"
        }
      ],
      "stateMutability": "view",
      "type": "function"
    },
    {
      "inputs": [
        {
          "internalType": "address",
          "name": "_addr",
          "type": "address"
        }
      ],
      "name": "getVoter",
      "outputs": [
        {
          "components": [
            {
              "internalType": "bool",
              "name": "isRegistered",
              "type": "bool"
            },
            {
              "internalType": "bool",
              "name": "hasVoted",
              "type": "bool"
            },
            {
              "internalType": "uint256",
              "name": "votedProposalId",
              "type": "uint256"
            }
          ],
          "internalType": "struct Voting.Voter",
          "name": "",
          "type": "tuple"
        }
      ],
      "stateMutability": "view",
      "type": "function"
    },
    {
      "inputs": [],
      "name": "owner",
      "outputs": [
        {
          "internalType": "address",
          "name": "",
          "type": "address"
        }
      ],
      "stateMutability": "view",
      "type": "function"
    },
    {
      "inputs": [],
      "name": "renounceOwnership",
      "outputs": [],
      "stateMutability": "nonpayable",
      "type": "function"
    },
    {
      "inputs": [
        {
          "internalType": "uint256",
          "name": "_id",
          "type": "uint256"
        }
      ],
      "name": "setVote",
      "outputs": [],
      "stateMutability": "nonpayable",
      "type": "function"
    },
    {
      "inputs": [],
      "name": "startProposalsRegistering",
      "outputs": [],
      "stateMutability": "nonpayable",
      "type": "function"
    },
    {
      "inputs": [],
      "name": "startVotingSession",
      "outputs": [],
      "stateMutability": "nonpayable",
      "type": "function"
    },
    {
      "inputs": [],
      "name": "tallyVotes",
      "outputs": [],
      "stateMutability": "nonpayable",
      "type": "function"
    },
    {
      "inputs": [
        {
          "internalType": "address",
          "name": "newOwner",
          "type": "address"
        }
      ],
      "name": "transferOwnership",
      "outputs": [],
      "stateMutability": "nonpayable",
      "type": "function"
    },
    {
      "inputs": [],
      "name": "winningProposalID",
      "outputs": [
        {
          "internalType": "uint256",
          "name": "",
          "type": "uint256"
        }
      ],
      "stateMutability": "view",
      "type": "function"
    },
    {
      "inputs": [],
      "name": "winningProposalVotes",
      "outputs": [
        {
          "internalType": "uint256",
          "name": "",
          "type": "uint256"
        }
      ],
      "stateMutability": "view",
      "type": "function"
    },
    {
      "inputs": [],
      "name": "workflowStatus",
      "outputs": [
        {
          "internalType": "enum Voting.WorkflowStatus",
          "name": "",
          "type": "uint8"
        }
      ],
      "stateMutability": "view",
      "type": "function"
    }
  ],
  "bytecode": "0x60806040523480156200001157600080fd5b5062000032620000266200003860201b60201c565b6200004060201b60201c565b62000104565b600033905090565b60008060009054906101000a900473ffffffffffffffffffffffffffffffffffffffff169050816000806101000a81548173ffffffffffffffffffffffffffffffffffffffff021916908373ffffffffffffffffffffffffffffffffffffffff1602179055508173ffffffffffffffffffffffffffffffffffffffff168173ffffffffffffffffffffffffffffffffffffffff167f8be0079c531659141344cd1fd0a4f28419497f9722a3daafe3b4186f6b6457e060405160405180910390a35050565b61250980620001146000396000f3fe608060405234801561001057600080fd5b50600436106101005760003560e01c8063a7bfab1611610097578063d4f50f9811610066578063d4f50f9814610217578063ee74c67814610247578063f2fde38b14610251578063f4ab9adf1461026d57610100565b8063a7bfab16146101db578063bdc01431146101e5578063c7038a4e14610203578063c88af42f1461020d57610100565b8063715018a6116100d3578063715018a6146101655780638da5cb5b1461016f578063a1edffa21461018d578063a2788cce146101ab57610100565b8063230796ae146101055780632fdae3c514610121578063378a21781461013d5780633f1b408114610147575b600080fd5b61011f600480360381019061011a9190611961565b610289565b005b61013b6004803603810190610136919061191c565b6106a6565b005b61014561097d565b005b61014f610acd565b60405161015c919061224d565b60405180910390f35b61016d610ad3565b005b610177610ae7565b6040516101849190611f84565b60405180910390f35b610195610b10565b6040516101a29190611fc8565b60405180910390f35b6101c560048036038101906101c09190611961565b610b23565b6040516101d29190612210565b60405180910390f35b6101e3610cb0565b005b6101ed610e08565b6040516101fa919061224d565b60405180910390f35b61020b610e0e565b005b610215611002565b005b610231600480360381019061022c91906118f3565b61115a565b60405161023e9190612232565b60405180910390f35b61024f611282565b005b61026b600480360381019061026691906118f3565b6113d9565b005b610287600480360381019061028291906118f3565b61145d565b005b600560003373ffffffffffffffffffffffffffffffffffffffff1673ffffffffffffffffffffffffffffffffffffffff16815260200190815260200160002060000160009054906101000a900460ff16610318576040517f08c379a000000000000000000000000000000000000000000000000000000000815260040161030f90612070565b60405180910390fd5b60036005811115610352577f4e487b7100000000000000000000000000000000000000000000000000000000600052602160045260246000fd5b600360009054906101000a900460ff16600581111561039a577f4e487b7100000000000000000000000000000000000000000000000000000000600052602160045260246000fd5b146103da576040517f08c379a00000000000000000000000000000000000000000000000000000000081526004016103d190612090565b60405180910390fd5b60011515600560003373ffffffffffffffffffffffffffffffffffffffff1673ffffffffffffffffffffffffffffffffffffffff16815260200190815260200160002060000160019054906101000a900460ff1615151415610471576040517f08c379a0000000000000000000000000000000000000000000000000000000008152600401610468906121f0565b60405180910390fd5b60048054905081106104b8576040517f08c379a00000000000000000000000000000000000000000000000000000000081526004016104af90612110565b60405180910390fd5b80600560003373ffffffffffffffffffffffffffffffffffffffff1673ffffffffffffffffffffffffffffffffffffffff168152602001908152602001600020600101819055506001600560003373ffffffffffffffffffffffffffffffffffffffff1673ffffffffffffffffffffffffffffffffffffffff16815260200190815260200160002060000160016101000a81548160ff02191690831515021790555060048181548110610594577f4e487b7100000000000000000000000000000000000000000000000000000000600052603260045260246000fd5b906000526020600020906002020160010160008154809291906105b6906123aa565b9190505550600254600482815481106105f8577f4e487b7100000000000000000000000000000000000000000000000000000000600052603260045260246000fd5b906000526020600020906002020160010154111561066a576004818154811061064a577f4e487b7100000000000000000000000000000000000000000000000000000000600052603260045260246000fd5b906000526020600020906002020160010154600281905550806001819055505b7f4d99b957a2bc29a30ebd96a7be8e68fe50a3c701db28a91436490b7d53870ca4338260405161069b929190611f9f565b60405180910390a150565b600560003373ffffffffffffffffffffffffffffffffffffffff1673ffffffffffffffffffffffffffffffffffffffff16815260200190815260200160002060000160009054906101000a900460ff16610735576040517f08c379a000000000000000000000000000000000000000000000000000000000815260040161072c90612070565b60405180910390fd5b6001600581111561076f577f4e487b7100000000000000000000000000000000000000000000000000000000600052602160045260246000fd5b600360009054906101000a900460ff1660058111156107b7577f4e487b7100000000000000000000000000000000000000000000000000000000600052602160045260246000fd5b146107f7576040517f08c379a00000000000000000000000000000000000000000000000000000000081526004016107ee906120b0565b60405180910390fd5b60405160200161080690612150565b60405160208183030381529060405280519060200120828260405160200161082f92919061200c565b604051602081830303815290604052805190602001201415610886576040517f08c379a000000000000000000000000000000000000000000000000000000000815260040161087d906120f0565b60405180910390fd5b61088e61179d565b82828080601f016020809104026020016040519081016040528093929190818152602001838380828437600081840152601f19601f820116905080830192505050505050508160000181905250600481908060018154018082558091505060019003906000526020600020906002020160009091909190915060008201518160000190805190602001906109239291906117b7565b506020820151816001015550507f92e393e9b54e2f801d3ea4beb0c5e71a21cc34a5d34b77d0fb8a3aa1650dc18f60016004805490506109639190612295565b604051610970919061224d565b60405180910390a1505050565b600460058111156109b7577f4e487b7100000000000000000000000000000000000000000000000000000000600052602160045260246000fd5b600360009054906101000a900460ff1660058111156109ff577f4e487b7100000000000000000000000000000000000000000000000000000000600052602160045260246000fd5b14610a3f576040517f08c379a0000000000000000000000000000000000000000000000000000000008152600401610a36906121b0565b60405180910390fd5b6005600360006101000a81548160ff02191690836005811115610a8b577f4e487b7100000000000000000000000000000000000000000000000000000000600052602160045260246000fd5b02179055507f0a97a4ee45751e2abf3e4fc8946939630b11b371ea8ae39ccdc3056e98f5cc3f60046005604051610ac3929190611fe3565b60405180910390a1565b60025481565b610adb611653565b610ae560006116d1565b565b60008060009054906101000a900473ffffffffffffffffffffffffffffffffffffffff16905090565b600360009054906101000a900460ff1681565b610b2b61179d565b600560003373ffffffffffffffffffffffffffffffffffffffff1673ffffffffffffffffffffffffffffffffffffffff16815260200190815260200160002060000160009054906101000a900460ff16610bba576040517f08c379a0000000000000000000000000000000000000000000000000000000008152600401610bb190612070565b60405180910390fd5b60048281548110610bf4577f4e487b7100000000000000000000000000000000000000000000000000000000600052603260045260246000fd5b9060005260206000209060020201604051806040016040529081600082018054610c1d90612378565b80601f0160208091040260200160405190810160405280929190818152602001828054610c4990612378565b8015610c965780601f10610c6b57610100808354040283529160200191610c96565b820191906000526020600020905b815481529060010190602001808311610c7957829003601f168201915b505050505081526020016001820154815250509050919050565b610cb8611653565b60036005811115610cf2577f4e487b7100000000000000000000000000000000000000000000000000000000600052602160045260246000fd5b600360009054906101000a900460ff166005811115610d3a577f4e487b7100000000000000000000000000000000000000000000000000000000600052602160045260246000fd5b14610d7a576040517f08c379a0000000000000000000000000000000000000000000000000000000008152600401610d7190612090565b60405180910390fd5b6004600360006101000a81548160ff02191690836005811115610dc6577f4e487b7100000000000000000000000000000000000000000000000000000000600052602160045260246000fd5b02179055507f0a97a4ee45751e2abf3e4fc8946939630b11b371ea8ae39ccdc3056e98f5cc3f60036004604051610dfe929190611fe3565b60405180910390a1565b60015481565b610e16611653565b60006005811115610e50577f4e487b7100000000000000000000000000000000000000000000000000000000600052602160045260246000fd5b600360009054906101000a900460ff166005811115610e98577f4e487b7100000000000000000000000000000000000000000000000000000000600052602160045260246000fd5b14610ed8576040517f08c379a0000000000000000000000000000000000000000000000000000000008152600401610ecf90612170565b60405180910390fd5b6001600360006101000a81548160ff02191690836005811115610f24577f4e487b7100000000000000000000000000000000000000000000000000000000600052602160045260246000fd5b0217905550610f3161179d565b6040518060400160405280600781526020017f47454e4553495300000000000000000000000000000000000000000000000000815250816000018190525060048190806001815401808255809150506001900390600052602060002090600202016000909190919091506000820151816000019080519060200190610fb79291906117b7565b506020820151816001015550507f0a97a4ee45751e2abf3e4fc8946939630b11b371ea8ae39ccdc3056e98f5cc3f60006001604051610ff7929190611fe3565b60405180910390a150565b61100a611653565b60016005811115611044577f4e487b7100000000000000000000000000000000000000000000000000000000600052602160045260246000fd5b600360009054906101000a900460ff16600581111561108c577f4e487b7100000000000000000000000000000000000000000000000000000000600052602160045260246000fd5b146110cc576040517f08c379a00000000000000000000000000000000000000000000000000000000081526004016110c390612190565b60405180910390fd5b6002600360006101000a81548160ff02191690836005811115611118577f4e487b7100000000000000000000000000000000000000000000000000000000600052602160045260246000fd5b02179055507f0a97a4ee45751e2abf3e4fc8946939630b11b371ea8ae39ccdc3056e98f5cc3f60016002604051611150929190611fe3565b60405180910390a1565b61116261183d565b600560003373ffffffffffffffffffffffffffffffffffffffff1673ffffffffffffffffffffffffffffffffffffffff16815260200190815260200160002060000160009054906101000a900460ff166111f1576040517f08c379a00000000000000000000000000000000000000000000000000000000081526004016111e890612070565b60405180910390fd5b600560008373ffffffffffffffffffffffffffffffffffffffff1673ffffffffffffffffffffffffffffffffffffffff1681526020019081526020016000206040518060600160405290816000820160009054906101000a900460ff161515151581526020016000820160019054906101000a900460ff161515151581526020016001820154815250509050919050565b61128a611653565b600260058111156112c4577f4e487b7100000000000000000000000000000000000000000000000000000000600052602160045260246000fd5b600360009054906101000a900460ff16600581111561130c577f4e487b7100000000000000000000000000000000000000000000000000000000600052602160045260246000fd5b1461134c576040517f08c379a000000000000000000000000000000000000000000000000000000000815260040161134390612130565b60405180910390fd5b60038060006101000a81548160ff02191690836005811115611397577f4e487b7100000000000000000000000000000000000000000000000000000000600052602160045260246000fd5b02179055507f0a97a4ee45751e2abf3e4fc8946939630b11b371ea8ae39ccdc3056e98f5cc3f600260036040516113cf929190611fe3565b60405180910390a1565b6113e1611653565b600073ffffffffffffffffffffffffffffffffffffffff168173ffffffffffffffffffffffffffffffffffffffff161415611451576040517f08c379a000000000000000000000000000000000000000000000000000000000815260040161144890612030565b60405180910390fd5b61145a816116d1565b50565b611465611653565b6000600581111561149f577f4e487b7100000000000000000000000000000000000000000000000000000000600052602160045260246000fd5b600360009054906101000a900460ff1660058111156114e7577f4e487b7100000000000000000000000000000000000000000000000000000000600052602160045260246000fd5b14611527576040517f08c379a000000000000000000000000000000000000000000000000000000000815260040161151e906121d0565b60405180910390fd5b60011515600560008373ffffffffffffffffffffffffffffffffffffffff1673ffffffffffffffffffffffffffffffffffffffff16815260200190815260200160002060000160009054906101000a900460ff16151514156115be576040517f08c379a00000000000000000000000000000000000000000000000000000000081526004016115b590612050565b60405180910390fd5b6001600560008373ffffffffffffffffffffffffffffffffffffffff1673ffffffffffffffffffffffffffffffffffffffff16815260200190815260200160002060000160006101000a81548160ff0219169083151502179055507fb6be2187d059cc2a55fe29e0e503b566e1e0f8c8780096e185429350acffd3dd816040516116489190611f84565b60405180910390a150565b61165b611795565b73ffffffffffffffffffffffffffffffffffffffff16611679610ae7565b73ffffffffffffffffffffffffffffffffffffffff16146116cf576040517f08c379a00000000000000000000000000000000000000000000000000000000081526004016116c6906120d0565b60405180910390fd5b565b60008060009054906101000a900473ffffffffffffffffffffffffffffffffffffffff169050816000806101000a81548173ffffffffffffffffffffffffffffffffffffffff021916908373ffffffffffffffffffffffffffffffffffffffff1602179055508173ffffffffffffffffffffffffffffffffffffffff168173ffffffffffffffffffffffffffffffffffffffff167f8be0079c531659141344cd1fd0a4f28419497f9722a3daafe3b4186f6b6457e060405160405180910390a35050565b600033905090565b604051806040016040528060608152602001600081525090565b8280546117c390612378565b90600052602060002090601f0160209004810192826117e5576000855561182c565b82601f106117fe57805160ff191683800117855561182c565b8280016001018555821561182c579182015b8281111561182b578251825591602001919060010190611810565b5b5090506118399190611862565b5090565b6040518060600160405280600015158152602001600015158152602001600081525090565b5b8082111561187b576000816000905550600101611863565b5090565b60008135905061188e816124a5565b92915050565b60008083601f8401126118a657600080fd5b8235905067ffffffffffffffff8111156118bf57600080fd5b6020830191508360018202830111156118d757600080fd5b9250929050565b6000813590506118ed816124bc565b92915050565b60006020828403121561190557600080fd5b60006119138482850161187f565b91505092915050565b6000806020838503121561192f57600080fd5b600083013567ffffffffffffffff81111561194957600080fd5b61195585828601611894565b92509250509250929050565b60006020828403121561197357600080fd5b6000611981848285016118de565b91505092915050565b611993816122c9565b82525050565b6119a2816122db565b82525050565b6119b181612324565b82525050565b60006119c38385612284565b93506119d0838584612336565b6119d983612480565b840190509392505050565b60006119ef82612268565b6119f98185612273565b9350611a09818560208601612345565b611a1281612480565b840191505092915050565b6000611a2a602683612284565b91507f4f776e61626c653a206e6577206f776e657220697320746865207a65726f206160008301527f64647265737300000000000000000000000000000000000000000000000000006020830152604082019050919050565b6000611a90601283612284565b91507f416c7265616479207265676973746572656400000000000000000000000000006000830152602082019050919050565b6000611ad0601283612284565b91507f596f75277265206e6f74206120766f74657200000000000000000000000000006000830152602082019050919050565b6000611b10602183612284565b91507f566f74696e672073657373696f6e20686176656e74207374617274656420796560008301527f74000000000000000000000000000000000000000000000000000000000000006020830152604082019050919050565b6000611b76601d83612284565b91507f50726f706f73616c7320617265206e6f7420616c6c6f776564207965740000006000830152602082019050919050565b6000611bb6602083612284565b91507f4f776e61626c653a2063616c6c6572206973206e6f7420746865206f776e65726000830152602082019050919050565b6000611bf6602383612284565b91507f566f7573206e6520706f7576657a20706173206e65207269656e2070726f706f60008301527f73657200000000000000000000000000000000000000000000000000000000006020830152604082019050919050565b6000611c5c601283612284565b91507f50726f706f73616c206e6f7420666f756e6400000000000000000000000000006000830152602082019050919050565b6000611c9c602b83612284565b91507f5265676973746572696e672070726f706f73616c73207068617365206973206e60008301527f6f742066696e69736865640000000000000000000000000000000000000000006020830152604082019050919050565b6000611d02600083612284565b9150600082019050919050565b6000611d1c602983612284565b91507f5265676973746572696e672070726f706f73616c732063616e7420626520737460008301527f6172746564206e6f7700000000000000000000000000000000000000000000006020830152604082019050919050565b6000611d82602883612284565b91507f5265676973746572696e672070726f706f73616c7320686176656e742073746160008301527f72746564207965740000000000000000000000000000000000000000000000006020830152604082019050919050565b6000611de8602a83612284565b91507f43757272656e7420737461747573206973206e6f7420766f74696e672073657360008301527f73696f6e20656e646564000000000000000000000000000000000000000000006020830152604082019050919050565b6000611e4e602383612284565b91507f566f7465727320726567697374726174696f6e206973206e6f74206f70656e2060008301527f79657400000000000000000000000000000000000000000000000000000000006020830152604082019050919050565b6000611eb4601683612284565b91507f596f75206861766520616c726561647920766f746564000000000000000000006000830152602082019050919050565b60006040830160008301518482036000860152611f0482826119e4565b9150506020830151611f196020860182611f66565b508091505092915050565b606082016000820151611f3a6000850182611999565b506020820151611f4d6020850182611999565b506040820151611f606040850182611f66565b50505050565b611f6f8161231a565b82525050565b611f7e8161231a565b82525050565b6000602082019050611f99600083018461198a565b92915050565b6000604082019050611fb4600083018561198a565b611fc16020830184611f75565b9392505050565b6000602082019050611fdd60008301846119a8565b92915050565b6000604082019050611ff860008301856119a8565b61200560208301846119a8565b9392505050565b600060208201905081810360008301526120278184866119b7565b90509392505050565b6000602082019050818103600083015261204981611a1d565b9050919050565b6000602082019050818103600083015261206981611a83565b9050919050565b6000602082019050818103600083015261208981611ac3565b9050919050565b600060208201905081810360008301526120a981611b03565b9050919050565b600060208201905081810360008301526120c981611b69565b9050919050565b600060208201905081810360008301526120e981611ba9565b9050919050565b6000602082019050818103600083015261210981611be9565b9050919050565b6000602082019050818103600083015261212981611c4f565b9050919050565b6000602082019050818103600083015261214981611c8f565b9050919050565b6000602082019050818103600083015261216981611cf5565b9050919050565b6000602082019050818103600083015261218981611d0f565b9050919050565b600060208201905081810360008301526121a981611d75565b9050919050565b600060208201905081810360008301526121c981611ddb565b9050919050565b600060208201905081810360008301526121e981611e41565b9050919050565b6000602082019050818103600083015261220981611ea7565b9050919050565b6000602082019050818103600083015261222a8184611ee7565b905092915050565b60006060820190506122476000830184611f24565b92915050565b60006020820190506122626000830184611f75565b92915050565b600081519050919050565b600082825260208201905092915050565b600082825260208201905092915050565b60006122a08261231a565b91506122ab8361231a565b9250828210156122be576122bd6123f3565b5b828203905092915050565b60006122d4826122fa565b9050919050565b60008115159050919050565b60008190506122f582612491565b919050565b600073ffffffffffffffffffffffffffffffffffffffff82169050919050565b6000819050919050565b600061232f826122e7565b9050919050565b82818337600083830152505050565b60005b83811015612363578082015181840152602081019050612348565b83811115612372576000848401525b50505050565b6000600282049050600182168061239057607f821691505b602082108114156123a4576123a3612451565b5b50919050565b60006123b58261231a565b91507fffffffffffffffffffffffffffffffffffffffffffffffffffffffffffffffff8214156123e8576123e76123f3565b5b600182019050919050565b7f4e487b7100000000000000000000000000000000000000000000000000000000600052601160045260246000fd5b7f4e487b7100000000000000000000000000000000000000000000000000000000600052602160045260246000fd5b7f4e487b7100000000000000000000000000000000000000000000000000000000600052602260045260246000fd5b6000601f19601f8301169050919050565b600681106124a2576124a1612422565b5b50565b6124ae816122c9565b81146124b957600080fd5b50565b6124c58161231a565b81146124d057600080fd5b5056fea264697066735822122078564e3b61f5f848673391c94d1a1a1d46067d7dcd40539cc70cc24ed1d0d6ef64736f6c63430008000033",
  "linkReferences": {},
  "deployedLinkReferences": {}
}